:100000000000002041020000C9030000CB030000F3
:10001000CD030000CF030000D1030000000000006A
:10002000000000000000000000000000D3030000FA
:10003000D503000000000000D7030000D903000032
:10004000DB030000DB030000DB030000DB03000038
:10005000DB030000DB030000DB030000DB03000028
:10006000DB030000DB030000DB030000DB03000018
:10007000DB030000DB030000DB030000DB03000008
:10008000DB030000DB030000DB030000DB030000F8
:10009000DB030000DB030000DB030000DB030000E8
:1000A000DB030000DB030000DB030000DB030000D8
:1000B000DB030000DB030000DB030000DB030000C8
:1000C000DB030000DB030000DB030000DB030000B8
:1000D000DB030000DB030000DB03000095090000E8
:1000E000AD090000C5090000DB030000DB030000D0
:1000F000DB030000DB030000DB030000DB03000088
:10010000DB030000DB030000DB030000DB03000077
:10011000DB030000DB030000DB030000DB03000067
:10012000DB030000DB030000DB030000DB03000057
:10013000DB030000DB030000DB030000DB03000047
:10014000DB030000DB030000DB030000DB03000037
:10015000DB030000DB030000DB030000DB03000027
:10016000DB030000DB030000DB030000DB03000017
:10017000DB030000DB030000DB030000DB03000007
:10018000DB030000DB030000DB030000DB030000F7
:10019000DB030000DB030000DB030000DB030000E7
:1001A000DB030000DB030000DB030000DB030000D7
:1001B000DB030000DB030000DB030000DB030000C7
:1001C000DB030000DB030000DB030000DB030000B7
:1001D000DB030000DB030000DB030000DB030000A7
:1001E000DB030000DB030000DB030000DB03000097
:1001F000DB030000DB030000DB030000DB03000087
:10020000DB030000DB030000DB030000DB03000076
:10021000DB030000DB030000DB030000DB03000066
:10022000DB030000DB030000DB030000DB03000056
:10023000DB030000DB030000DB030000DB03000046
:100240000F481049104A0023934205D20C680460FD
:10025000043304310430F7E70C480D4A002300242E
:10026000934203D2046004330430F9E7094801687B
:100270004FF4700211430160074880470748004768
:100280000000FD1F801C0000600400006004FD1FD2
:100290001000000088ED00E0090A0000E9020000FB
:1002A00080B400AF0D4B1B6801330C4A13600C4B3C
:1002B0001B7883F00103DBB2002B03D0084B012233
:1002C0001A7002E0064B00221A70054B1A78054B93
:1002D0001A7000BFBD465DF8047B70476404FD1FC3
:1002E0006004FD1FA080DE4280B58AB000AF00F040
:1002F0008BFB0023BB7100237B7100237B712B4B95
:1003000000221A702A4B7A791A702A4B01221A702D
:10031000294B00221A7007F114031421184600F02B
:100320005DFB07F110030221184600F057FB07F1AF
:1003300008030821184600F051FB07F11003FB6188
:1003400007F108033B6200211C4800F051F90A2321
:100350003B7501237B7500233B760023BB7500238F
:10036000FB75FB6900221A70FB6901225A703B6A17
:1003700000221A603B6A124A5A60012387F824302F
:1003800007F1140319460D4800F0AAF901210D48A0
:1003900000F0EAFA48F2A061084800F0E5FA0748E0
:1003A00000F0B8FA054800F0CAFAFEE720A0DE42E5
:1003B000A080DE42A040DE42A000DE4200500240AB
:1003C000A102000040500240FEE7FEE7FEE7FEE724
:1003D000FEE7FEE7FEE7FEE7FEE7FEE780B483B058
:1003E00000AF0346FB7197F90730002B0BDBFB795D
:1003F00003F01F02074997F907305B09012000FA53
:1004000002F241F8232000BF0C37BD465DF8047BA3
:10041000704700BF00E100E080B483B000AF034646
:10042000FB7197F90730002B0CDBFB7903F01F02FF
:10043000074997F907305B09012000FA02F260339F
:1004400041F8232000BF0C37BD465DF8047B7047A0
:1004500000E100E080B483B000AF03463960FB7177
:1004600097F90730002B0ADB3B68DAB20C4997F9A1
:1004700007301201D2B20B4483F800230AE03B6834
:10048000DAB20849FB7903F00F03043B1201D2B240
:100490000B441A7600BF0C37BD465DF8047B7047ED
:1004A00000E100E000ED00E080B485B000AF7860CE
:1004B0000023FB6010E00D4AFB681B0113441B681E
:1004C0007A689A4205D1FB681B01084A1344043339
:1004D00006E0FB680133FB60FB68022BEBD90023CD
:1004E00018461437BD465DF8047B70470000FD1FB9
:1004F00080B584B000AF786039607B681B7CFB738B
:10050000FB7B03F00403002B0ED07B681B7CDBB26B
:1005100023F00403DAB27B681A743B689B68002BF3
:1005200002D03B689B689847FB7B03F00203002BDB
:100530000ED07B681B7CDBB223F00203DAB27B684F
:100540001A743B685B68002B02D03B685B68984775
:10055000FB7B03F00103002B0ED07B681B7CDBB21E
:1005600023F00103DAB27B681A743B681B68002B26
:1005700002D03B681B68984700BF1037BD4680BD5E
:1005800080B582B000AF78607B68164A934209D18B
:100590002720FFF741FF2720FFF720FF0F2127200B
:1005A000FFF758FF7B68104A934209D12820FFF7D4
:1005B00033FF2820FFF712FF0F212820FFF74AFF03
:1005C0007B680A4A934209D12920FFF725FF292099
:1005D000FFF704FF0F212920FFF73CFF00BF08377A
:1005E000BD4680BD00500240405002408050024055
:1005F00080B584B000AF78600B46FB707B68002B41
:1006000002D0FB78082B01D9042350E07868FFF76B
:100610004BFFF860FB68002B01D1042347E07B68A7
:10062000254A934203D07B68244A934209D1244A45
:10063000FB7803F00F03D9B2537861F303035370CF
:1006400034E07B681F4A934203D07B681E4A934282
:1006500009D11B4AFB7803F00F03D9B2537861F339
:100660000713537022E07B68184A934203D07B68DB
:10067000174A934209D1174AFB7803F00F03D9B206
:10068000537861F30303537010E07B68124A93427E
:1006900003D07B68114A934208D10E4AFB7803F0DD
:1006A0000F03D9B2537861F3071353700023184630
:1006B0001037BD4680BD00BF005002404050024090
:1006C0000051024080500240C0500240005202409F
:1006D000405202400053024080520240C052024049
:1006E00080B586B000AF786039607B687B617B68DD
:1006F000002B01D1042308E17868FFF7D5FE3861AB
:100700003B69002B01D10423FFE07A6993896FF3E1
:10071000061393817A699389032161F30613938108
:100720003B681B78FB813B681B780A2B36D801A2FB
:1007300052F823F061070000610700006107000024
:100740006107000061070000610700006107000009
:10075000610700007F0700007F0700007F0700009F
:100760007A69537C6FF300035374FB8903F007032A
:10077000D9B27A69938961F30E33938110E07A6973
:10078000537C43F001035374FB8903F00703D9B290
:100790007A69938961F30E33938101E00423B4E015
:1007A0003B685B78002B02D0012B06D00BE07A6906
:1007B00093896FF3C713938107E07A69938943F0B4
:1007C0008003938101E004239FE03B68DB78002BEA
:1007D00002D0012B06D00BE07A6993896FF3C30333
:1007E000938107E07A69938943F00803938101E0DC
:1007F00004238AE03B689B78BB813B689B78052B90
:100800003ED801A252F823F0210800002108000080
:1008100021080000350800005308000069080000A6
:10082000BB8903F00303D9B27A69938961F3092381
:10083000938127E07A69537C6FF3C7135374BB89A4
:1008400003F00303D9B27A69938961F30923938191
:1008500018E07A69537C43F0800353747A69938972
:100860006FF3092393810DE07A69537C43F0800391
:1008700053747A699389012161F30923938101E01B
:10088000042342E03B681B79002B02D0012B06D0E9
:100890000BE07A6993896FF38203938107E07A69A9
:1008A000938943F00403938101E004232DE03B6826
:1008B0009B68002B13D03B689B681B78012B04D1ED
:1008C0007A69137C43F0400313743B689B685B7840
:1008D000012B04D17A69137C43F0100313743B6835
:1008E000DB68002B09D03B68DB681A683B699A60BB
:1008F0003B68DB685A683B691A603B681B7C012BCC
:1009000002D17868FFF73CFE002318461837BD4631
:1009100080BD00BF80B483B000AF78607B68002BDF
:1009200001D1042305E07A68938943F0020393819F
:10093000002318460C37BD465DF8047B704780B431
:1009400083B000AF78607B68002B01D1042305E001
:100950007A68938943F001039381002318460C378A
:10096000BD465DF8047B704780B483B000AF78600B
:100970000B467B807B68002B01D1042303E07B685E
:100980007A881A80002318460C37BD465DF8047B30
:100990007047000080B500AF02490348FFF7A8FD8B
:1009A00000BF80BD0400FD1F0050024080B500AFB5
:1009B00002490348FFF79CFD00BF80BD1400FD1FE6
:1009C0004050024080B500AF02490348FFF790FD58
:1009D00000BF80BD2400FD1F8050024080B483B062
:1009E00000AF7860396004E07B685A1C7A600022AE
:1009F0001A703B685A1E3A60002BF5D100BF0C37C5
:100A0000BD465DF8047B704780B400AF454B464A55
:100A1000C3F8002C434B454AC3F8002C414B00223D
:100A20009A60434BD3F88830414A43F47003C2F8CC
:100A300088304FF0804301225A6100BF4FF080435D
:100A40005B6903F00203022BF8D13A4B00221A61D2
:100A5000384B01225A61374B80229A61354B8122F3
:100A6000DA61344B83221A62324B00229A62314B94
:100A70005C221A632F4B1B682E4A43F0020313605B
:100A800000BF2C4B5B6803F00203002BF9D0294B0D
:100A900000225A63274B01229A63264B3122DA63E4
:100AA000244B1B68234A43F01003136000BF214B03
:100AB0005B6803F01003002BF9D01E4B1B681D4A26
:100AC00043F0400313601B4B1B6803F0E0031A4A1A
:100AD0001360184B5B6803F0E002174B1B689A42E7
:100AE000F1D14FF08043D3F80021144B1340134A47
:100AF000934212D0124B134ADA604FF08043D3F87E
:100B000000310F4A1B0C93604FF080430C4AD3F81E
:100B1000003153600A4B0022DA6000BFBD465DF829
:100B2000047B70470010014051E5CC1AAE1A33E542
:100B300000ED00E0000001406804FD1FFF031F00FE
:100B400000E0024054E5CC1A03685A004CBF43F061
:100B5000004323F000431844704700BF69B32DE9F8
:100B6000F04701F1FF3917460646C8464FF0000A24
:100B70000AEB080404EBD4746410E500711908460C
:100B8000FFF7E2FFA145034605F10800304409D014
:100B9000BB4209D8FFF7D8FF0138B8420AD204F1A6
:100BA000010AE5E7BB4205D9A24502D004F1FF38AE
:100BB000DEE700210846BDE8F0870846704700BF21
:100BC000012807D0022807D0044B00280CBF184684
:100BD00000207047024870470248704789120000A1
:100BE000911200009912000030B5244B83B00446E6
:100BF0008D1E4BB301A92846AFF30080F0B10199D7
:100C00002A46FFF7ABFF0146C0B1FFF79DFF4B68D7
:100C1000A064012B2ED0002B01F1040026DBFFF78E
:100C200093FF0023C4E913030368002B12DBFFF7D3
:100C30008BFF00232061184603B030BD00232361E1
:100C40000923184603B030BD0D490E48091AC910D2
:100C50000191D5E7C3F30360FFF7B2FF002814BF8B
:100C6000002309232061184603B030BD0123C4E9E5
:100C70001303D9E7002323610523DCE7000000000C
:100C8000801C0000E01B00000368DA0710B5044672
:100C900006D49B0700F1480009D500F051FC2368F9
:100CA000590709D51A070ED5DB0613D510BD00F07C
:100CB0003FFC23685907F5D404F1D00000F048FC4C
:100CC00023681A07F0D404F5A87000F049FC2368E3
:100CD000DB06EBD404F5E870BDE8104000F084BCFE
:100CE000036803B103441846704700BF704700BF54
:100CF00070B504460D46296C2046FFF775FF064681
:100D000088B92B6C63612A462369214601209847E4
:100D10000828F0D0072806D13046296CFFF7E6FFF7
:100D2000281D00F0F9FB00F04DFE00BF2DE9F04753
:100D30000C1D054617460FCCADF5727D03AE0FC6F0
:100D40000FCC0FC60FCC0FC694E80F0002ACD5F83D
:100D50000C80D5F8189086E80F0000232846216CF7
:100D60002360FFF741FF002F064614BF0A2709271B
:100D700046BB236C6B614FF4F07221467AA800F0F9
:100D800029FE2B697AAA294638469847889B8246CD
:100D9000CDE90049394663642A462B460120C04705
:100DA000D8B94FF4F0727AA9204600F013FEBAF1D8
:100DB000080F18D1216C2846FFF716FF06460927B1
:100DC000002ED6D0A36B47F01001CDE900492A468A
:100DD000636401202B46C04700B1092630460DF55B
:100DE000727DBDE8F087BAF1070FF6D13046216C6D
:100DF000FFF77CFF03A800F08FFB00BFF0B5CB6BC3
:100E00000B640E1D0F4604460FCEF9B001AD0FC5A1
:100E10000FCE0FC50FCE0FC596E80F004FF0FF366F
:100E200085E80F00009606E023696A462146984748
:100E30000828054608D110992046FFF7D5FE00285E
:100E4000F2D0092079B0F0BD6846FFF71DFF062DEE
:100E5000F7D139462046FFF74BFF00BF30B4DD6BBA
:100E6000C160826119461D64002230BCFFF75EBF7D
:100E700070B5C66843690B64AEB903690A46044697
:100E80000D46014602209847072805D008280FD1B3
:100E900029462046FFF72CFF3046296CFFF726FF36
:100EA000281D00F039FB0122FFF740FF00F08AFD0A
:100EB00000F088FDC26822B1CA6B0A640022FFF705
:100EC00035BFFFF79BBF00BF042910D8DFE801F052
:100ED00005030F0303000120704743B90F2A06D80A
:100EE00000EB820218465368009A13607047022094
:100EF000704700BF10B584B0002303AC0A460094CD
:100F00001946FFF7E1FF039804B010BD042910D87B
:100F1000DFE801F005030F0303000120704743B928
:100F20000F2A06D800EB8200009A12684260184629
:100F300070470220704700BF10B584B0002303AC97
:100F4000039200940A461946FFF7E0FF04B010BD73
:100F5000F0B5D36B1364151D07460E460FCDADF5E6
:100F60000F7D17AC0FC40FCD0FC40FCD0FC495E884
:100F70000F004FF0FF3584E80F00169510E016A81B
:100F8000FFF7DAFF314616A8B84716AA694678B9BE
:100F9000049B08209847052804460AD0092807D052
:100FA00026996846FFF720FE6A460C210028E6D005
:100FB000092416A8FFF768FE20460DF50F7DF0BD49
:100FC0002DE9F04FCC6C89B00D4654F8041B069403
:100FD000174600F003081E46002B61D00B0CDAB256
:100FE00009048DF81D30022304EB820405918DF86D
:100FF0001C302B6DB8F1020F08BFAC6B13F001036E
:1010000078D1019300F008030293D4F800A0BAF15C
:10101000000F00F01B81022E3ED0B4F800A0B4F8FF
:1010200002900434AA6C29F0010B0F213846934436
:10103000FFF760FF83452DD82AF001025A4482420F
:1010400094BF002001204FEA490303F002030AF095
:10105000010A43EA0A03012B30D03BB3022B15D11E
:10106000236823F0004BB8F1000F4DD130B1029A44
:10107000002A6DD0BBF1000F00F0A080002B00DA39
:1010800004340BF1010B04EB8B04BEE7092009B01B
:10109000BDE8F08F0020D6E7D4F804900834C1E70B
:1010A000090203230591ADF81C30A2E7B8F1000F47
:1010B00002D0002840F09D800434A6E7B8F1000F6C
:1010C0002CD1A8B1D4E90023991C4FEAD272DDD00B
:1010D00005F158010133049100F09E80201DFFF7B7
:1010E000FFFD04AB01462846AFF3008000286FD116
:1010F00008348AE7384605A900F000FB0028C5D16E
:10110000082009B0BDE8F08F0D213846D5F82090B1
:10111000FFF7F0FE814540D02368AFE70D21384648
:10112000D5F82090FFF7E6FE8145E1D1AB6A9C42FD
:10113000DED12046FFF708FD0F2102463846FFF7B3
:10114000FBFE38462A460021FFF7F6FE07209EE701
:10115000BBF1000F32D005F15803CDF80C8004F13B
:101160000409B046DDF808A01E4601E0DA4525D0A6
:1011700048460496FFF7B4FD04AB0146002228461A
:10118000AFF300800AF1010A09F104090028EDD04B
:1011900046462368DDF80C8070E7AB6A9C42BBD101
:1011A00004224FF00009A318C5E90AB9C5E90C23C8
:1011B00023684B4538DB0123019362E738460D2154
:1011C000FFF798FE049B2862C5E9093406205EE714
:1011D00081460D213846FFF78DFEB9F1020F2862D6
:1011E0001FD12B46049A43F82C2F6B62AC62062069
:1011F0004DE72046FFF7A8FC04340646AC632846BA
:10120000AFF3008000283FF441AF384632460F214B
:10121000FFF792FE07203AE738460D21FFF76AFEF6
:101220002862049B6B62E1E70BF1010004EB800094
:10123000FFF78AFC0F2102463846FFF77DFE38464D
:101240002A464946FFF778FE072020E705A93846D9
:1012500000F054FA00287FF419AF019B002B3FF4F3
:101260004FAF0F213846FFF745FE0E2102463846A4
:10127000FFF762FE3846034A0F21FFF75DFE0720A5
:1012800005E700BF000000000023FFF799BE00BF84
:101290000123FFF795BE00BF0223FFF791BE00BFF9
:1012A0002DE9F0410546C4B0042900F2B380DFE81F
:1012B00001F09551B12B0300002B40F0AB80102AB8
:1012C00000F2A8802B68DC0600F1FA8022AC2046F0
:1012D000019200F093F9AE6B019A0023012707FAFF
:1012E00003F11142304604D050F8041B44F8231097
:1012F00006460133042BF2D12046AE6300F074F9A8
:10130000002044B0BDE8F081032B40F08380160C30
:1013100097B2F319102B7DD82B681A0700F1DA80E9
:1013200022AC204600F03EF904EBC600A96B4FB199
:101330000346FA001044CE1A9F5943F8047B8342B7
:10134000FAD111442046A96300F00AF9002044B004
:10135000BDE8F081012B4FEA12461FFA82F855D002
:10136000052B57D106EB0807202F53D80F2E55D940
:101370004746B8F1000F64D14046A96BB8F1000FA1
:1013800000F0B780002722AC04EBC604043C01EB5C
:10139000C00251F8040B44F8040F9142F9D17FB117
:1013A00002AC102E304638BF102004EBC000843849
:1013B00002EBC70152F8044B40F8044F9142F9D1B7
:1013C000012B00F08F800F2EA96365D917B102A8F9
:1013D00000F0BEF8002044B0BDE8F081D3B9AC6B9A
:1013E00097B2012605F1040C06FA03F139422046B2
:1013F00004D050F8041B4CF8231004460133102B82
:10140000F2D112F40050E5D1AC6304E006EB08021F
:10141000102A28D9022044B0BDE8F081102F6AD9E3
:10142000103F2A68D0070AD5284622F0010242F070
:10143000020240F8482B019300F086F8019B002F30
:101440005BD02A68510731D40F2E29D902AC20462F
:10145000019300F081F8C6F110000028A96B019BF0
:1014600091DC0A469DE70F2ED4D82A68D10708D50B
:10147000284622F0030240F8482B019300F05CF864
:10148000019B019322AC204600F056F84046A96B20
:10149000019B40B3002777E722A800F051F895E7B9
:1014A00022A8019300F050F8019BCFE7284622F0D4
:1014B000040240F8D02B019300F04EF8019BC3E7E3
:1014C00023F010032B6005F5E870019200F096F808
:1014D000019AFBE623F008032B6005F5A87000F0E5
:1014E00061F81DE722AC0431A963204600F020F822
:1014F00070E7474667E7002793E70F2E3FF63CAFBC
:1015000022AC2046019300F01FF84046A96B019BD6
:1015100000287FF439AF56E700F1340191E8380034
:101520009C46A6464CF8045D90E8FF0FE54600BDDA
:1015300090EC210B704700BF80EC210B704700BF7F
:1015400090EC200B704700BF80EC200B704700BF71
:10155000D0EC200B704700BFC0EC200B704700BFE1
:10156000F0EC0201F0EC0211F0EC0221F0EC02319F
:10157000F0EC0241F0EC0251F0EC0261F0EC02718F
:10158000F0EC0281F0EC0291F0EC02A1F0EC02B17F
:10159000F0EC02C1F0EC02D1F0EC02E1F0EC02F16F
:1015A000704700BFE0EC0201E0EC0211E0EC022128
:1015B000E0EC0231E0EC0241E0EC0251E0EC0261CF
:1015C000E0EC0271E0EC0281E0EC0291E0EC02A1BF
:1015D000E0EC02B1E0EC02C1E0EC02D1E0EC02E1AF
:1015E000E0EC02F1704700BFB0FC0181B0FC01915A
:1015F000B0FC01A1B0FC01B1704700BFA0FC0181AB
:10160000A0FC0191A0FC01A1A0FC01B1704700BFAA
:10161000EC4600B52DE900502DE9FF1F4FF0000307
:101620002DE90C0001A9FFF7E9FBDDF840E012B05D
:10163000704700BFEC4600B52DE900502DE9FF1FB3
:101640004FF000032DE90C0001A9FFF711FCDDF8B4
:1016500040E012B0704700BFEC4600B52DE90050E5
:101660002DE9FF1F4FF000032DE90C0001A9FFF742
:1016700021FCDDF840E012B0704700BFEC4600B539
:101680002DE900502DE9FF1F4FF000032DE90C005C
:1016900001ABFFF7E3FBDDF840E012B0704700BF9D
:1016A000EC4600B52DE900502DE9FF1F4FF0000377
:1016B0002DE90C0001AAFFF74BFCDDF840E012B069
:1016C000704700BF027A82B9437AABB14268013BEE
:1016D00010B4437213680321141D01721A0244608E
:1016E00002605DF8044B180E70470368013A0272FD
:1016F0001A020260180E7047B02070472DE9F043BF
:10170000054685B00E464FF000083046FFF7DAFF79
:10171000B028044600F0B280070620D500F0F003A0
:10172000802B4DD0902B36D0A02B60D0B02B74D016
:10173000C02B00F08B8000F0F803D02B0BD100F011
:101740000702013242F40022052301212846FFF757
:10175000A7FD0028D9D0092005B0BDE8F0830DF120
:101760000C09002319468700CDF800900D22284669
:10177000FFF7AAFBFFB2039BCDF800900437600689
:101780004CBFDF1BFF18002319460D222846039784
:10179000FFF7BCFBB9E700F00D030D2BDBD003AF67
:1017A000002300F00F02194600972846FFF78CFB34
:1017B0000023009719460D222846FFF7A7FBA4E750
:1017C0003046FFF77FFF24020443B4F5004FC2D038
:1017D00024010023A2B219462846FFF761FD002824
:1017E000B9D114F4004F18BF4FF001088DE7C24380
:1017F00002F007034FF47F621A41010702F47F628F
:101800004FF0000348BF42F4804219462846FFF7D4
:1018100047FD00283FF479AF9DE7B12833D0B228C7
:1018200000F0A080B32841D000F0FC03B42B92D08C
:1018300000F007020132012342F400221946284633
:10184000FFF72EFD00283FF460AF84E7C62851D093
:10185000C7285AD000F0F803C02B69D0C82875D02B
:10186000C9287FF478AF3046FFF72CFF020300F061
:101870000F0002F470220130024365E7B8F1000F57
:1018800027D0002068E73046FFF71CFF00283FF410
:1018900062AF10F0F0037FF45EAF024619462846AF
:1018A000FFF7FEFC00283FF430AF54E73046FFF767
:1018B00009FF010300F00F0001F47021421C012315
:1018C0000A4328461946FFF7EBFC00283FF41DAFFA
:1018D00041E703AC43460E22414600942846FFF7F9
:1018E000F3FA0094284643460F224146FFF70EFBC9
:1018F000404631E73046FFF7E5FE010300F00F00F8
:1019000001F47021421C0323DAE73046FFF7DAFEC8
:1019100000283FF420AF10F0F0037FF41CAF024624
:1019200004212846FFF7BCFC00283FF4EEAE12E786
:1019300000F00F020132032342F420221946284608
:10194000FFF7AEFC00283FF4E0AE04E73046FFF7B7
:10195000B9FE00F0F00200F00F031032013343EA49
:101960000232F1E600230DF10C090D221946CDF8E3
:1019700000902846FFF7A8FA3046FFF7A3FE0206BC
:101980004FF002070CD5039B00F07F00B8400344E2
:1019900030460393FFF796FE030607F10707F2D4DC
:1019A000039BCDF8009000F07F0403F50172BC406A
:1019B0000023144419460D2228460394FFF7A6FA83
:1019C000A3E600BF08B5062000F0CAF8012000F029
:1019D000F5F800BF844641EA000313F003036DD11C
:1019E000403A41D351F8043B40F8043B51F8043BE2
:1019F00040F8043B51F8043B40F8043B51F8043BE9
:101A000040F8043B51F8043B40F8043B51F8043BD8
:101A100040F8043B51F8043B40F8043B51F8043BC8
:101A200040F8043B51F8043B40F8043B51F8043BB8
:101A300040F8043B51F8043B40F8043B51F8043BA8
:101A400040F8043B51F8043B40F8043B51F8043B98
:101A500040F8043B51F8043B40F8043B51F8043B88
:101A600040F8043B403ABDD2303211D351F8043B28
:101A700040F8043B51F8043B40F8043B51F8043B68
:101A800040F8043B51F8043B40F8043B103AEDD2D7
:101A90000C3205D351F8043B40F8043B043AF9D228
:101AA000043208D0D2071CBF11F8013B00F8013BFB
:101AB00001D30B8803806046704700BF082A13D308
:101AC0008B078DD010F003038AD0C3F10403D21A20
:101AD000DB071CBF11F8013B00F8013B80D331F854
:101AE000023B20F8023B7BE7043AD9D3013A11F8D4
:101AF000013B00F8013BF9D20B7803704B7843703F
:101B00008B788370604670471F2938B522D8D0F88B
:101B1000DC2205460C466AB152F8213053B1012B44
:101B200016D0591C10D00025204642F82450984762
:101B3000284638BD284600F02FF8224601462846A0
:101B4000BDE8384000F014B816230360012038BD0A
:101B5000002038BD162303604FF0FF3038BD00BFB2
:101B6000024B01461868FFF7CFBF00BF3000FD1FD2
:101B700038B50B46074C054611461846002323602E
:101B800000F014F8431C00D038BD2368002BFBD0B4
:101B90002B6038BD6C04FD1F00F000B8024B5822CA
:101BA0001A604FF0FF3070476C04FD1F024B582243
:101BB0001A604FF0FF3070476C04FD1FFEE700BF56
:101BC00009970181B0B00884000000000000000007
:101BD000801C00000000FD1F6004000010000000D9
:041BE000F8B500BF95
:041BE400F8B500BF91
:101BE80058E6FF7F01000000F8E6FF7FCCFFFF7F8B
:101BF800D0E7FF7F01000000E8EFFF7FB0A9028077
:101C080080F0FF7FB0B0A880D0F0FF7F0100000017
:101C1800D8F0FF7FB0B0AA800CF1FF7FAE71B28020
:101C2800D4F1FF7FAB3F38802CF2FF7F010000002A
:101C380038F2FF7FB0B0AA8074F2FF7F0100000085
:101C480008F3FF7FAB0EB28070F3FF7FB0AF088060
:101C580030F6FF7F0100000040F6FF7FAC3F0380B5
:101C6800B0F8FF7F010000008CFAFF7FB0AD048060
:081C78004CFDFF7F010000009C
:101C800000500240000000000000000000000000C2
:101C90004050024000000000000000000000000072
:101CA0008050024000000000000000000000000022
:101CB0003800FD1F00000000000000002403FD1F8D
:101CC0008C03FD1FF403FD1F000000000000000056
:101CD0000000000000000000000000000000000004
:101CE00000000000000000000000000000000000F4
:101CF00000000000000000000000000000000000E4
:101D000000000000000000000000000000000000D3
:101D100000000000000000000000000000000000C3
:101D200000000000000000000000000000000000B3
:101D300000000000000000000000000000000000A3
:101D40000000000000000000000000000000000093
:101D50000000000000000000000000000000000083
:101D600001000000000000000E33CDAB34126DE620
:101D7000ECDE05000B000000000000000000000089
:101D80000000000000000000000000000000000053
:101D90000000000000000000000000000000000043
:101DA0000000000000000000000000000000000033
:101DB0000000000000000000000000000000000023
:00000001FF
